:03000000020AFDF4
:0C0AFD00787FE4F6D8FD7581090208003E
:1008D90000000000008060180C78E0800000000033
:1008E900000000203C2702020202273F3C200000B2
:1008F90000000004FCFC84848484CCF838000000E7
:10090900000000203F3F2020202030111F0E000052
:10091900000000E0F0180C0404040C181800000092
:10092900000000070F1830202020301008000000B8
:1009390000000004FCFC0404040C0818F0E00000AA
:10094900000000203F3F2020203010180F07000032
:1009590000000004FCFC84848484C40C1C00000096
:10096900000000203F3F20000000010000000000BF
:10097900000000E0F0180C040404040C183800000E
:10098900000000070F1830202020223E1E02000020
:090A84007D02120A157F647E0058
:100A8D00E4FDFCC3ED9FEC9E5015E4FBFA0BBB009F
:0F0A9D00010AEB646E4A70F50DBD00010C80E498
:010AAC002227
:0D0AF000D291D2900000C2910000C290226D
:0B0B0900C291D2900000D291000022A7
:070A5900AD07120AF07F78DF
:100A6000E4FEEFC4131313540124FF9291EF25E029
:100A7000FFD2900000C2900EBE08E7D291D2900043
:030A800000C29021
:010A83002250
:050ACB00120AD0E4FF57
:100AD000120A59E4FF120A60AF05120A60020B09FC
:100AE000120A597F40120A60AF05120A60020B0910
:10099900120A897FAE120AD07FD5120AD07F80123F
:1009A9000AD07FA8120AD07F3F120AD07FD3120A39
:1009B900CB7F40120AD07F8D120AD07F14120AD041
:1009C9007F20120ACB7FA1120AD07FC8120AD07FDA
:1009D900DA120AD07F12120AD07F81120AD07FCF91
:1009E900120AD07FD9120AD07FF1120AD07FDB1206
:1009F9000AD07F40120AD07FA4120AD07FA6120A19
:060A0900D07FAF020AD00D
:100AAD00E4FCEC24B0FF120ACB7F10120AD0E4FB59
:0D0ABD00E4FF120AE00BBB80F70CBC08E55B
:010ACA002209
:060A0F007B417D01E4FFC4
:020A1500AC072C
:100A1700EB24BFFBED24B0FF120AD0EC54F0C45412
:100A27000F4410FF120AD0EC540FFF120AD0E4FC57
:100A3700EBC454F024D9F582E43408F583E5822C1D
:100A4700F582E43583F583E493FF120AE00CBC10CA
:010A5700DFBF
:010A5800227B
:10080000D297120999120AAD2097FD120A0F7B4266
:100810007D02E4FF120A867B437D017F12120A15D6
:100820007B447F12120A847B457D017F24120A15C6
:100830007B467F24120A847B477D04E4FF120A155D
:100840007B487D05E4FF120A867B497D047F1212F6
:100850000A157B4A7D057F12120A867B4B7D047F39
:1008600024120A157B4C7D057F24120A86120AADDC
:10087000120A0F7B427D02E4FF120A157B437D01C1
:100880007F12120A157B447D027F12120A157B45E6
:100890007D017F24120A157B467D027F24120A15F2
:1008A0007B477D04E4FF120A157B487D05E4FF12B7
:1008B0000A157B497D047F12120A157B4A7D057F4C
:1008C00012120A157B4B7D047F24120A157B4C7D86
:0908D000057F24120A1502080834
:00000001FF
